{
  "contractName": "FreezableImplementationDirectory",
  "abi": [
    {
      "constant": true,
      "inputs": [],
      "name": "frozen",
      "outputs": [
        {
          "name": "",
          "type": "bool"
        }
      ],
      "payable": false,
      "stateMutability": "view",
      "type": "function"
    },
    {
      "constant": true,
      "inputs": [
        {
          "name": "contractName",
          "type": "string"
        }
      ],
      "name": "getImplementation",
      "outputs": [
        {
          "name": "",
          "type": "address"
        }
      ],
      "payable": false,
      "stateMutability": "view",
      "type": "function"
    },
    {
      "constant": false,
      "inputs": [],
      "name": "renounceOwnership",
      "outputs": [],
      "payable": false,
      "stateMutability": "nonpayable",
      "type": "function"
    },
    {
      "constant": true,
      "inputs": [],
      "name": "owner",
      "outputs": [
        {
          "name": "",
          "type": "address"
        }
      ],
      "payable": false,
      "stateMutability": "view",
      "type": "function"
    },
    {
      "constant": false,
      "inputs": [
        {
          "name": "_newOwner",
          "type": "address"
        }
      ],
      "name": "transferOwnership",
      "outputs": [],
      "payable": false,
      "stateMutability": "nonpayable",
      "type": "function"
    },
    {
      "anonymous": false,
      "inputs": [
        {
          "indexed": false,
          "name": "contractName",
          "type": "string"
        },
        {
          "indexed": false,
          "name": "implementation",
          "type": "address"
        }
      ],
      "name": "ImplementationChanged",
      "type": "event"
    },
    {
      "anonymous": false,
      "inputs": [
        {
          "indexed": true,
          "name": "previousOwner",
          "type": "address"
        }
      ],
      "name": "OwnershipRenounced",
      "type": "event"
    },
    {
      "anonymous": false,
      "inputs": [
        {
          "indexed": true,
          "name": "previousOwner",
          "type": "address"
        },
        {
          "indexed": true,
          "name": "newOwner",
          "type": "address"
        }
      ],
      "name": "OwnershipTransferred",
      "type": "event"
    },
    {
      "constant": false,
      "inputs": [],
      "name": "freeze",
      "outputs": [],
      "payable": false,
      "stateMutability": "nonpayable",
      "type": "function"
    },
    {
      "constant": false,
      "inputs": [
        {
          "name": "contractName",
          "type": "string"
        },
        {
          "name": "implementation",
          "type": "address"
        }
      ],
      "name": "setImplementation",
      "outputs": [],
      "payable": false,
      "stateMutability": "nonpayable",
      "type": "function"
    },
    {
      "constant": false,
      "inputs": [
        {
          "name": "contractName",
          "type": "string"
        }
      ],
      "name": "unsetImplementation",
      "outputs": [],
      "payable": false,
      "stateMutability": "nonpayable",
      "type": "function"
    }
  ],
  "bytecode": "0x6080604052336000806101000a81548173ffffffffffffffffffffffffffffffffffffffff021916908373ffffffffffffffffffffffffffffffffffffffff160217905550610da3806100536000396000f30060806040526004361061008e576000357c0100000000000000000000000000000000000000000000000000000000900463ffffffff168063054f7d9c1461009357806306419fe5146100c257806330b7be291461014b57806362a5af3b146101b45780636b683896146101cb578063715018a6146102745780638da5cb5b1461028b578063f2fde38b146102e2575b600080fd5b34801561009f57600080fd5b506100a8610325565b604051808215151515815260200191505060405180910390f35b3480156100ce57600080fd5b50610149600480360381019080803590602001908201803590602001908080601f0160208091040260200160405190810160405280939291908181526020018383808284378201915050505050509192919290803573ffffffffffffffffffffffffffffffffffffffff169060200190929190505050610338565b005b34801561015757600080fd5b506101b2600480360381019080803590602001908201803590602001908080601f01602080910402602001604051908101604052809392919081815260200183838082843782019150505050505091929192905050506103f1565b005b3480156101c057600080fd5b506101c96104a8565b005b3480156101d757600080fd5b50610232600480360381019080803590602001908201803590602001908080601f01602080910402602001604051908101604052809392919081815260200183838082843782019150505050505091929192905050506105cb565b604051808273ffffffffffffffffffffffffffffffffffffffff1673ffffffffffffffffffffffffffffffffffffffff16815260200191505060405180910390f35b34801561028057600080fd5b50610289610660565b005b34801561029757600080fd5b506102a0610762565b604051808273ffffffffffffffffffffffffffffffffffffffff1673ffffffffffffffffffffffffffffffffffffffff16815260200191505060405180910390f35b3480156102ee57600080fd5b50610323600480360381019080803573ffffffffffffffffffffffffffffffffffffffff169060200190929190505050610787565b005b600260009054906101000a900460ff1681565b600260009054906101000a900460ff161515156103e3576040517f08c379a000000000000000000000000000000000000000000000000000000000815260040180806020018281038252603b8152602001807f43616e6e6f7420706572666f726d20616374696f6e20666f7220612066726f7a81526020017f656e20696d706c656d656e746174696f6e206469726563746f7279000000000081525060400191505060405180910390fd5b6103ed82826107ee565b5050565b600260009054906101000a900460ff1615151561049c576040517f08c379a000000000000000000000000000000000000000000000000000000000815260040180806020018281038252603b8152602001807f43616e6e6f7420706572666f726d20616374696f6e20666f7220612066726f7a81526020017f656e20696d706c656d656e746174696f6e206469726563746f7279000000000081525060400191505060405180910390fd5b6104a581610a90565b50565b6000809054906101000a900473ffffffffffffffffffffffffffffffffffffffff1673ffffffffffffffffffffffffffffffffffffffff163373ffffffffffffffffffffffffffffffffffffffff1614151561050357600080fd5b600260009054906101000a900460ff161515156105ae576040517f08c379a000000000000000000000000000000000000000000000000000000000815260040180806020018281038252603b8152602001807f43616e6e6f7420706572666f726d20616374696f6e20666f7220612066726f7a81526020017f656e20696d706c656d656e746174696f6e206469726563746f7279000000000081525060400191505060405180910390fd5b6001600260006101000a81548160ff021916908315150217905550565b60006001826040518082805190602001908083835b60208310151561060557805182526020820191506020810190506020830392506105e0565b6001836020036101000a038019825116818451168082178552505050505050905001915050908152602001604051809103902060009054906101000a900473ffffffffffffffffffffffffffffffffffffffff169050919050565b6000809054906101000a900473ffffffffffffffffffffffffffffffffffffffff1673ffffffffffffffffffffffffffffffffffffffff163373ffffffffffffffffffffffffffffffffffffffff161415156106bb57600080fd5b6000809054906101000a900473ffffffffffffffffffffffffffffffffffffffff1673ffffffffffffffffffffffffffffffffffffffff167ff8df31144d9c2f0f6b59d69b8b98abd5459d07f2742c4df920b25aae33c6482060405160405180910390a260008060006101000a81548173ffffffffffffffffffffffffffffffffffffffff021916908373ffffffffffffffffffffffffffffffffffffffff160217905550565b6000809054906101000a900473ffffffffffffffffffffffffffffffffffffffff1681565b6000809054906101000a900473ffffffffffffffffffffffffffffffffffffffff1673ffffffffffffffffffffffffffffffffffffffff163373ffffffffffffffffffffffffffffffffffffffff161415156107e257600080fd5b6107eb81610c6a565b50565b6000809054906101000a900473ffffffffffffffffffffffffffffffffffffffff1673ffffffffffffffffffffffffffffffffffffffff163373ffffffffffffffffffffffffffffffffffffffff1614151561084957600080fd5b61085281610d64565b1515610912576040517f08c379a00000000000000000000000000000000000000000000000000000000081526004018080602001828103825260428152602001807f43616e6e6f742073657420696d706c656d656e746174696f6e20696e2064697281526020017f6563746f727920776974682061206e6f6e2d636f6e747261637420616464726581526020017f737300000000000000000000000000000000000000000000000000000000000081525060600191505060405180910390fd5b806001836040518082805190602001908083835b60208310151561094b5780518252602082019150602081019050602083039250610926565b6001836020036101000a038019825116818451168082178552505050505050905001915050908152602001604051809103902060006101000a81548173ffffffffffffffffffffffffffffffffffffffff021916908373ffffffffffffffffffffffffffffffffffffffff1602179055507fd46d20dadc2a85a470fddb00aee90ec2cc1f302e7e2dbf61ffaef72527f3c659828260405180806020018373ffffffffffffffffffffffffffffffffffffffff1673ffffffffffffffffffffffffffffffffffffffff168152602001828103825284818151815260200191508051906020019080838360005b83811015610a51578082015181840152602081019050610a36565b50505050905090810190601f168015610a7e5780820380516001836020036101000a031916815260200191505b50935050505060405180910390a15050565b6000809054906101000a900473ffffffffffffffffffffffffffffffffffffffff1673ffffffffffffffffffffffffffffffffffffffff163373ffffffffffffffffffffffffffffffffffffffff16141515610aeb57600080fd5b60006001826040518082805190602001908083835b602083101515610b255780518252602082019150602081019050602083039250610b00565b6001836020036101000a038019825116818451168082178552505050505050905001915050908152602001604051809103902060006101000a81548173ffffffffffffffffffffffffffffffffffffffff021916908373ffffffffffffffffffffffffffffffffffffffff1602179055507fd46d20dadc2a85a470fddb00aee90ec2cc1f302e7e2dbf61ffaef72527f3c65981600060405180806020018373ffffffffffffffffffffffffffffffffffffffff1673ffffffffffffffffffffffffffffffffffffffff168152602001828103825284818151815260200191508051906020019080838360005b83811015610c2c578082015181840152602081019050610c11565b50505050905090810190601f168015610c595780820380516001836020036101000a031916815260200191505b50935050505060405180910390a150565b600073ffffffffffffffffffffffffffffffffffffffff168173ffffffffffffffffffffffffffffffffffffffff1614151515610ca657600080fd5b8073ffffffffffffffffffffffffffffffffffffffff166000809054906101000a900473ffffffffffffffffffffffffffffffffffffffff1673ffffffffffffffffffffffffffffffffffffffff167f8be0079c531659141344cd1fd0a4f28419497f9722a3daafe3b4186f6b6457e060405160405180910390a3806000806101000a81548173ffffffffffffffffffffffffffffffffffffffff021916908373ffffffffffffffffffffffffffffffffffffffff16021790555050565b600080823b9050600081119150509190505600a165627a7a723058207fb851adf166540c53cdd6024f6f3d85e9b62ba8c2ba9982f38a6a0a320b374b0029",
  "source": "pragma solidity ^0.4.24;\n\nimport \"./ImplementationDirectory.sol\";\n\n/**\n * @title FreezableImplementationDirectory\n * @dev Implementation directory which can be made irreversibly immutable by the owner.\n */\ncontract FreezableImplementationDirectory is ImplementationDirectory {\n  /// @dev Mutability state of the directory.\n  bool public frozen;\n\n  /**\n   * @dev Modifier that allows functions to be called only before the contract is frozen.\n   */\n  modifier whenNotFrozen() {\n    require(!frozen, \"Cannot perform action for a frozen implementation directory\");\n    _;\n  }\n\n  /**\n   * @dev Makes the directory irreversibly immutable.\n   * It can only be called once, by the owner.\n   */\n  function freeze() onlyOwner whenNotFrozen public {\n    frozen = true;\n  }\n\n  /**\n   * @dev Sets the address of the implementation of a contract.\n   * It overrides the parent function to prevent it from running if the directory is frozen.\n   * @param contractName Name of the contract.\n   * @param implementation Address where the contract is implemented.\n   */\n  function setImplementation(string contractName, address implementation) public whenNotFrozen {\n    super.setImplementation(contractName, implementation);\n  }\n\n  /**\n   * @dev Unsets the implementation of a contract.\n   * It overrides the parent function to prevent it from running if the directory is frozen.\n   * @param contractName Name of the contract.\n   */\n  function unsetImplementation(string contractName) public whenNotFrozen {\n    super.unsetImplementation(contractName);\n  }\n}\n",
  "sourcePath": "zos-lib/contracts/application/versioning/FreezableImplementationDirectory.sol",
  "compiler": {
    "name": "solc",
    "version": "0.4.24+commit.e67f0147.Emscripten.clang"
  },
  "schemaVersion": "2.0.0",
  "updatedAt": "2018-08-24T19:22:44.899Z"
}